{
  "_format": "hh-sol-artifact-1",
  "contractName": "Subscription",
  "sourceName": "contracts/Subscription.sol",
  "abi": [
    {
      "inputs": [
        {
          "internalType": "address",
          "name": "_usdtToken",
          "type": "address"
        },
        {
          "internalType": "uint256",
          "name": "_initialPrice",
          "type": "uint256"
        }
      ],
      "stateMutability": "nonpayable",
      "type": "constructor"
    },
    {
      "anonymous": false,
      "inputs": [
        {
          "indexed": true,
          "internalType": "address",
          "name": "previousOwner",
          "type": "address"
        },
        {
          "indexed": true,
          "internalType": "address",
          "name": "newOwner",
          "type": "address"
        }
      ],
      "name": "OwnershipTransferred",
      "type": "event"
    },
    {
      "anonymous": false,
      "inputs": [
        {
          "indexed": false,
          "internalType": "uint256",
          "name": "newPrice",
          "type": "uint256"
        }
      ],
      "name": "PriceUpdated",
      "type": "event"
    },
    {
      "anonymous": false,
      "inputs": [
        {
          "indexed": false,
          "internalType": "address",
          "name": "user",
          "type": "address"
        },
        {
          "indexed": false,
          "internalType": "uint256",
          "name": "months",
          "type": "uint256"
        },
        {
          "indexed": false,
          "internalType": "uint256",
          "name": "expiryDate",
          "type": "uint256"
        }
      ],
      "name": "SubscriptionPurchased",
      "type": "event"
    },
    {
      "inputs": [
        {
          "internalType": "address",
          "name": "user",
          "type": "address"
        }
      ],
      "name": "checkSubscription",
      "outputs": [
        {
          "internalType": "bool",
          "name": "",
          "type": "bool"
        }
      ],
      "stateMutability": "view",
      "type": "function"
    },
    {
      "inputs": [],
      "name": "owner",
      "outputs": [
        {
          "internalType": "address",
          "name": "",
          "type": "address"
        }
      ],
      "stateMutability": "view",
      "type": "function"
    },
    {
      "inputs": [
        {
          "internalType": "uint256",
          "name": "months",
          "type": "uint256"
        }
      ],
      "name": "purchaseSubscription",
      "outputs": [],
      "stateMutability": "nonpayable",
      "type": "function"
    },
    {
      "inputs": [],
      "name": "renounceOwnership",
      "outputs": [],
      "stateMutability": "nonpayable",
      "type": "function"
    },
    {
      "inputs": [
        {
          "internalType": "uint256",
          "name": "_newPrice",
          "type": "uint256"
        }
      ],
      "name": "setSubscriptionPrice",
      "outputs": [],
      "stateMutability": "nonpayable",
      "type": "function"
    },
    {
      "inputs": [
        {
          "internalType": "address",
          "name": "",
          "type": "address"
        }
      ],
      "name": "subscriptionExpiry",
      "outputs": [
        {
          "internalType": "uint256",
          "name": "",
          "type": "uint256"
        }
      ],
      "stateMutability": "view",
      "type": "function"
    },
    {
      "inputs": [],
      "name": "subscriptionPrice",
      "outputs": [
        {
          "internalType": "uint256",
          "name": "",
          "type": "uint256"
        }
      ],
      "stateMutability": "view",
      "type": "function"
    },
    {
      "inputs": [
        {
          "internalType": "address",
          "name": "newOwner",
          "type": "address"
        }
      ],
      "name": "transferOwnership",
      "outputs": [],
      "stateMutability": "nonpayable",
      "type": "function"
    },
    {
      "inputs": [],
      "name": "usdtToken",
      "outputs": [
        {
          "internalType": "contract IERC20",
          "name": "",
          "type": "address"
        }
      ],
      "stateMutability": "view",
      "type": "function"
    },
    {
      "inputs": [],
      "name": "withdrawFunds",
      "outputs": [],
      "stateMutability": "nonpayable",
      "type": "function"
    }
  ],
  "bytecode": "0x60806040523480156200001157600080fd5b50604051620011ce380380620011ce8339818101604052810190620000379190620001a8565b620000576200004b620000ae60201b60201c565b620000b660201b60201c565b6001808190555081600260006101000a81548173ffffffffffffffffffffffffffffffffffffffff021916908373ffffffffffffffffffffffffffffffffffffffff1602179055508060038190555050506200025b565b600033905090565b60008060009054906101000a900473ffffffffffffffffffffffffffffffffffffffff169050816000806101000a81548173ffffffffffffffffffffffffffffffffffffffff021916908373ffffffffffffffffffffffffffffffffffffffff1602179055508173ffffffffffffffffffffffffffffffffffffffff168173ffffffffffffffffffffffffffffffffffffffff167f8be0079c531659141344cd1fd0a4f28419497f9722a3daafe3b4186f6b6457e060405160405180910390a35050565b6000815190506200018b8162000227565b92915050565b600081519050620001a28162000241565b92915050565b60008060408385031215620001bc57600080fd5b6000620001cc858286016200017a565b9250506020620001df8582860162000191565b9150509250929050565b6000620001f682620001fd565b9050919050565b600073ffffffffffffffffffffffffffffffffffffffff82169050919050565b6000819050919050565b6200023281620001e9565b81146200023e57600080fd5b50565b6200024c816200021d565b81146200025857600080fd5b50565b610f63806200026b6000396000f3fe608060405234801561001057600080fd5b506004361061009e5760003560e01c80638da5cb5b116100665780638da5cb5b146101335780638edf72f514610151578063a98ad46c1461016d578063bdc8e54c1461018b578063f2fde38b146101a95761009e565b80631a5ee779146100a357806324600fc3146100bf5780634f62647e146100c957806360a85ef5146100f9578063715018a614610129575b600080fd5b6100bd60048036038101906100b891906109f5565b6101c5565b005b6100c761020e565b005b6100e360048036038101906100de91906109a3565b6103bd565b6040516100f09190610c9b565b60405180910390f35b610113600480360381019061010e91906109a3565b610408565b6040516101209190610d71565b60405180910390f35b610131610420565b005b61013b610434565b6040516101489190610be9565b60405180910390f35b61016b600480360381019061016691906109f5565b61045d565b005b6101756106fc565b6040516101829190610cb6565b60405180910390f35b610193610722565b6040516101a09190610d71565b60405180910390f35b6101c360048036038101906101be91906109a3565b610728565b005b6101cd6107ac565b806003819055507f66cbca4f3c64fecf1dcb9ce094abcf7f68c3450a1d4e3a8e917dd621edb4ebe0816040516102039190610d71565b60405180910390a150565b6102166107ac565b6000600260009054906101000a900473ffffffffffffffffffffffffffffffffffffffff1673ffffffffffffffffffffffffffffffffffffffff166370a08231306040518263ffffffff1660e01b81526004016102739190610be9565b60206040518083038186803b15801561028b57600080fd5b505afa15801561029f573d6000803e3d6000fd5b505050506040513d601f19601f820116820180604052508101906102c39190610a1e565b9050600260009054906101000a900473ffffffffffffffffffffffffffffffffffffffff1673ffffffffffffffffffffffffffffffffffffffff1663a9059cbb61030b610434565b836040518363ffffffff1660e01b8152600401610329929190610c3b565b602060405180830381600087803b15801561034357600080fd5b505af1158015610357573d6000803e3d6000fd5b505050506040513d601f19601f8201168201806040525081019061037b91906109cc565b6103ba576040517f08c379a00000000000000000000000000000000000000000000000000000000081526004016103b190610cf1565b60405180910390fd5b50565b600042600460008473ffffffffffffffffffffffffffffffffffffffff1673ffffffffffffffffffffffffffffffffffffffff16815260200190815260200160002054119050919050565b60046020528060005260406000206000915090505481565b6104286107ac565b610432600061082a565b565b60008060009054906101000a900473ffffffffffffffffffffffffffffffffffffffff16905090565b6104656108ee565b600081116104a8576040517f08c379a000000000000000000000000000000000000000000000000000000000815260040161049f90610d11565b60405180910390fd5b6000816003546104b89190610df3565b9050600260009054906101000a900473ffffffffffffffffffffffffffffffffffffffff1673ffffffffffffffffffffffffffffffffffffffff166323b872dd3330846040518463ffffffff1660e01b815260040161051993929190610c04565b602060405180830381600087803b15801561053357600080fd5b505af1158015610547573d6000803e3d6000fd5b505050506040513d601f19601f8201168201806040525081019061056b91906109cc565b6105aa576040517f08c379a00000000000000000000000000000000000000000000000000000000081526004016105a190610cf1565b60405180910390fd5b600042600460003373ffffffffffffffffffffffffffffffffffffffff1673ffffffffffffffffffffffffffffffffffffffff1681526020019081526020016000205411156106535762278d00836106029190610df3565b600460003373ffffffffffffffffffffffffffffffffffffffff1673ffffffffffffffffffffffffffffffffffffffff1681526020019081526020016000205461064c9190610d9d565b9050610670565b62278d00836106629190610df3565b4261066d9190610d9d565b90505b80600460003373ffffffffffffffffffffffffffffffffffffffff1673ffffffffffffffffffffffffffffffffffffffff168152602001908152602001600020819055507f6d458fa94cc5b30d7877bed127c2029f98bc0cbc4634dc7789b6bc804fbdae033384836040516106e793929190610c64565b60405180910390a150506106f961093e565b50565b600260009054906101000a900473ffffffffffffffffffffffffffffffffffffffff1681565b60035481565b6107306107ac565b600073ffffffffffffffffffffffffffffffffffffffff168173ffffffffffffffffffffffffffffffffffffffff1614156107a0576040517f08c379a000000000000000000000000000000000000000000000000000000000815260040161079790610cd1565b60405180910390fd5b6107a98161082a565b50565b6107b4610947565b73ffffffffffffffffffffffffffffffffffffffff166107d2610434565b73ffffffffffffffffffffffffffffffffffffffff1614610828576040517f08c379a000000000000000000000000000000000000000000000000000000000815260040161081f90610d31565b60405180910390fd5b565b60008060009054906101000a900473ffffffffffffffffffffffffffffffffffffffff169050816000806101000a81548173ffffffffffffffffffffffffffffffffffffffff021916908373ffffffffffffffffffffffffffffffffffffffff1602179055508173ffffffffffffffffffffffffffffffffffffffff168173ffffffffffffffffffffffffffffffffffffffff167f8be0079c531659141344cd1fd0a4f28419497f9722a3daafe3b4186f6b6457e060405160405180910390a35050565b60026001541415610934576040517f08c379a000000000000000000000000000000000000000000000000000000000815260040161092b90610d51565b60405180910390fd5b6002600181905550565b60018081905550565b600033905090565b60008135905061095e81610ee8565b92915050565b60008151905061097381610eff565b92915050565b60008135905061098881610f16565b92915050565b60008151905061099d81610f16565b92915050565b6000602082840312156109b557600080fd5b60006109c38482850161094f565b91505092915050565b6000602082840312156109de57600080fd5b60006109ec84828501610964565b91505092915050565b600060208284031215610a0757600080fd5b6000610a1584828501610979565b91505092915050565b600060208284031215610a3057600080fd5b6000610a3e8482850161098e565b91505092915050565b610a5081610e4d565b82525050565b610a5f81610e5f565b82525050565b610a6e81610e95565b82525050565b6000610a81602683610d8c565b91507f4f776e61626c653a206e6577206f776e657220697320746865207a65726f206160008301527f64647265737300000000000000000000000000000000000000000000000000006020830152604082019050919050565b6000610ae7600f83610d8c565b91507f5472616e73666572206661696c656400000000000000000000000000000000006000830152602082019050919050565b6000610b27600e83610d8c565b91507f496e76616c6964206d6f6e7468730000000000000000000000000000000000006000830152602082019050919050565b6000610b67602083610d8c565b91507f4f776e61626c653a2063616c6c6572206973206e6f7420746865206f776e65726000830152602082019050919050565b6000610ba7601f83610d8c565b91507f5265656e7472616e637947756172643a207265656e7472616e742063616c6c006000830152602082019050919050565b610be381610e8b565b82525050565b6000602082019050610bfe6000830184610a47565b92915050565b6000606082019050610c196000830186610a47565b610c266020830185610a47565b610c336040830184610bda565b949350505050565b6000604082019050610c506000830185610a47565b610c5d6020830184610bda565b9392505050565b6000606082019050610c796000830186610a47565b610c866020830185610bda565b610c936040830184610bda565b949350505050565b6000602082019050610cb06000830184610a56565b92915050565b6000602082019050610ccb6000830184610a65565b92915050565b60006020820190508181036000830152610cea81610a74565b9050919050565b60006020820190508181036000830152610d0a81610ada565b9050919050565b60006020820190508181036000830152610d2a81610b1a565b9050919050565b60006020820190508181036000830152610d4a81610b5a565b9050919050565b60006020820190508181036000830152610d6a81610b9a565b9050919050565b6000602082019050610d866000830184610bda565b92915050565b600082825260208201905092915050565b6000610da882610e8b565b9150610db383610e8b565b9250827fffffffffffffffffffffffffffffffffffffffffffffffffffffffffffffffff03821115610de857610de7610eb9565b5b828201905092915050565b6000610dfe82610e8b565b9150610e0983610e8b565b9250817fffffffffffffffffffffffffffffffffffffffffffffffffffffffffffffffff0483118215151615610e4257610e41610eb9565b5b828202905092915050565b6000610e5882610e6b565b9050919050565b60008115159050919050565b600073ffffffffffffffffffffffffffffffffffffffff82169050919050565b6000819050919050565b6000610ea082610ea7565b9050919050565b6000610eb282610e6b565b9050919050565b7f4e487b7100000000000000000000000000000000000000000000000000000000600052601160045260246000fd5b610ef181610e4d565b8114610efc57600080fd5b50565b610f0881610e5f565b8114610f1357600080fd5b50565b610f1f81610e8b565b8114610f2a57600080fd5b5056fea26469706673582212202a9ccf23c38733f5e605aaadbaf2baf61c0a0b3e713885e588e91fa12b05e71964736f6c63430008000033",
  "linkReferences": {},
  "deployedLinkReferences": {}
}